:100000000C946D010C9495010C9495010C94950140
:100010000C9495010C9495010C9495010C94950108
:100020000C9495010C9495010C9495010C94480D39
:100030000C9495010C9495010C9495010C949501E8
:100040000C94FE0C0C9495010C9495010C94950164
:100050000C9495010C9495010C9495010C949501C8
:100060000C94040E0C949501AED580A83FD30040AB
:100070008D142002A1C8DA12817FD9F1DB40A4A639
:10008000AF00030C0F30333C3FC0C3CCCFF0F3FCC8
:10009000FF000005072060000000000000005F0076
:1000A000000007000700147F147F14242A7F2A12FF
:1000B00023130864623649562050000807030000E5
:1000C0001C2241000041221C002A1C7F1C2A080817
:1000D0003E0808008070300008080808080000602A
:1000E000600020100804023E5149453E00427F4016
:1000F0000072494949462141494D331814127F1075
:1001000027454545393C4A494931412111090736BE
:1001100049494936464949291E000014000000405B
:100120003400000008142241141414141400412255
:10013000140802015909063E415D594E7C12111204
:100140007C7F494949363E414141227F4141413E00
:100150007F494949417F090909013E414151737F66
:100160000808087F00417F41002040413F017F088F
:100170001422417F404040407F021C027F7F0408E0
:10018000107F3E4141413E7F090909063E41512110
:100190005E7F09192946264949493203017F010337
:1001A0003F4040403F1F2040201F3F4038403F63BA
:1001B0001408146303047804036159494D43007F14
:1001C0004141410204081020004141417F040201E5
:1001D0000204404040404000030708002054547887
:1001E000407F284444383844444428384444287FD5
:1001F000385454541800087E090218A4A49C787F2F
:100200000804047800447D40002040403D007F10F9
:1002100028440000417F40007C047804787C080476
:1002200004783844444438FC18242418182424182A
:10023000FC7C08040408485454542404043F442417
:100240003C4040207C1C2040201C3C4030403C4432
:10025000281028444C9090907C4464544C440008EE
:10026000364100000077000000413608000201021C
:1002700004023C2623263C68001980400000000050
:1002800000240027002A0000000000250028002B81
:1002900000000000002300260029000404040404D8
:1002A0000404040202020202020303030303030123
:1002B00002040810204080010204081020010204FA
:1002C00008102000000008000201000003040700DD
:1002D0000000000000000000230F11241FBECFEF1C
:1002E000D8E0DEBFCDBF13E0A0E0B1E0E4EDFDE279
:1002F00002C005900D92A63BB107D9F724E0A6EB0A
:10030000B3E001C01D92A53EB207E1F711E0CDE6D2
:10031000D1E004C02197FE010E94EB14CC36D10736
:10032000C9F70E94970F0C94E8160C940000CF9226
:10033000DF92EF92FF92DC01A03282E0B807D4F5A1
:10034000A53BB10514F0A4EBB0E04091C10428E84E
:1003500030E0241B310947FD3395220F331F220F54
:10036000331F6901330FEE08FF084091C20428E5EE
:1003700032E0241B310947FD3395220F331F220F32
:10038000331F032E000C440B550B2C193D094E094D
:100390005F09B7FF02C0B0E0A0E00E946F1424EB39
:1003A00030E040E050E00E944514C20ED31EE41E2F
:1003B000F51ED601E091C004EC3080F52091C10417
:1003C00088E890E0821B910927FD9395880F991F7B
:1003D000880F991FA817B90784F02091C20488E5F7
:1003E00092E0821B910927FD9395880F991F880F32
:1003F000991FA817B9070CF4CD010297880F991F10
:100400004FB7F8942E2F30E0F901EE0FFF1FE20FE7
:10041000F31FE157FB4F928381834FBFFF90EF9013
:10042000DF90CF900895833081F028F4813099F0E7
:100430008230A9F008958730A9F08830C9F084305F
:10044000B1F4809180008F7D03C0809180008F7710
:1004500080938000089584B58F7784BD089584B516
:100460008F7DFBCF8091B0008F778093B00008958F
:100470008091B0008F7DF9CFCF93DF93E4EDF2E070
:100480008491E0ECF2E0D491ECEAF2E0C491CC2368
:10049000A1F081110E941302EC2FF0E0EE0FFF1F7C
:1004A000EF56FD4FA591B491EC91ED2381E090E0E2
:1004B00009F480E0DF91CF91089580E090E0FACFD9
:1004C0001F93CF93DF93282F30E0F901ED53FD4FB9
:1004D0008491F901E155FD4FD491F901E556FD4FA5
:1004E000C491CC23A9F0162F81110E941302EC2F86
:1004F000F0E0EE0FFF1FE957FD4FA591B4918FB7C4
:10050000F894EC91111108C0D095DE23DC938FBFD5
:10051000DF91CF911F910895DE2BF8CFCF93DF931A
:1005200090E0FC01E155FD4F249185569D4FFC0163
:1005300084918823D1F090E0880F991FFC01E35843
:10054000FD4FA591B491FC01E957FD4FC591D491A0
:10055000623071F49FB7F8943C91822F8095832389
:100560008C93E8812E2B28839FBFDF91CF91089534
:100570008FB7F894EC912E2B2C938FBFF6CF3FB70B
:10058000F8948091280490912904A0912A04B091B4
:100590002B0426B5A89B05C02F3F19F00196A11D7D
:1005A000B11D3FBFBA2FA92F982F8827BC01CD01BD
:1005B000620F711D811D911D42E0660F771F881F1C
:1005C000991F4A95D1F708958F929F92AF92BF924B
:1005D000CF92DF92EF92FF924B015C010E94BF022B
:1005E0006B017C010E94BF026C197D098E099F0975
:1005F000683E734081059105A8F321E0821A9108B5
:10060000A108B10888EEC80E83E0D81EE11CF11CD9
:1006100081149104A104B10429F7FF90EF90DF90B9
:10062000CF90BF90AF909F908F90089508950895B8
:10063000AF92BF92CF92DF92EF92FF920F931F93F0
:10064000CF93DF936C017B018B01040F151FEB012E
:100650005E01AE18BF08C017D10759F06991D601E5
:10066000ED91FC910190F081E02DC6010995892B57
:1006700079F7C501DF91CF911F910F91FF90EF9016
:10068000DF90CF90BF90AF9008952091F703260F91
:100690003327331F21323105ECF420917D04FC0116
:1006A00090E080E0243069F082E00895A091F703A3
:1006B0002191AC0149525C4FA40FB52FB11D2C9371
:1006C0000196861798F38091F703680F6093F703FC
:1006D00080E0089581E0089510927D0481E0809388
:1006E0005C041092570461E082E10E94600261E0C4
:1006F00083E10E946002E9EBF0E080818E7F8083DD
:1007000080818D7F808388E48093B80085E4809326
:10071000BC000895CF93DF9391E09093D603882394
:10072000B9F0C091B800D091BA008091BC008A7B2A
:100730008093BC0060E082E10E94600260E083E19F
:100740000E9460020E946C03D093BA00C093B8006C
:10075000DF91CF910895CF92DF92EF92FF920F93A6
:100760001F93CF93DF93D82FC62F613208F098C024
:100770000E94BF026B017C0180917D0481116BC0DE
:1007800081E080937D0480935C049FEF90935B04F1
:1007900010925A049C0F90935904809358048091AE
:1007A0005804DD0FD82BD093580480915704813022
:1007B00009F078C0109257040E94BF026B017C01BF
:1007C000809158048093BB0080917F0490918004B5
:1007D000A0918104B0918204892B8A2B8B2BA1F0EC
:1007E0000E94BF0200917F04109180042091810437
:1007F000309182046C197D098E099F09061717072D
:100800002807390708F448C08091BC0083FDD8CF81
:1008100085EC8093BC000E94BF026B017C0180913B
:100820007D04813009F440C080915A048C1710F483
:10083000C0915A04E7E3F4E0ADE5B4E080E08C1346
:1008400055C08C2FDF91CF911F910F91FF90EF90AA
:10085000DF90CF90089580917F0490918004A091C3
:100860008104B0918204892B8A2B8B2B09F484CFCD
:100870000E94BF0200917F041091800420918104A6
:10088000309182046C197D098E099F09061717079C
:100890002807390708F070CF80917E040E948A03F0
:1008A000C0E0CFCF85EEB5CF80917F0490918004DA
:1008B000A0918104B0918204892B8A2B8B2B09F49F
:1008C000AECF0E94BF0200917F041091800420915E
:1008D0008104309182046C197D098E099F090617E5
:1008E00017072807390708F09ACFD6CF91919D9323
:1008F0008F5FA5CF0895E091320480913104E8170D
:1009000030F4F0E0E35AFB4F808190E008958FEFE0
:100910009FEF089590913204809131042FEF3FEFC3
:10092000981748F4E92FF0E0E35AFB4F208130E0BC
:100930009F5F90933204C901089580913104909192
:100940003204891B990B0895CF92DF92EF92FF92A8
:100950000F931F93CF93DF937C01CB018A012091EA
:100960003604222389F0EB016B01C40ED51ECC1591
:10097000DD0569F06991D701ED91FC910190F0815D
:10098000E02DC7010995F3CF642F0E944503C801EC
:10099000DF91CF911F910F91FF90EF90DF90CF905B
:1009A0000895CF93DF931F92CDB7DEB7698320916F
:1009B00036042223F9F020913304203258F021E04C
:1009C00030E0FC013383228390E080E00F90DF91E0
:1009D000CF91089580913404E82FF0E0EA54FC4F61
:1009E000998190838F5F809334048093330481E0F6
:1009F00090E0ECCF61E0CE0101960E944503F7CF75
:100A0000CF92DF92EF92FF920F931F93CF93DF93DA
:100A1000D091330481E0D13208F09CC0C0913504FC
:100A20000E94BF026B017C0180917D0481116CC02A
:100A300082E080937D0481E080935C048FEF80935B
:100A40005B0410925A04D0935904A6EBB3E0E7E399
:100A5000F4E080E0D8138DC01092580480915804BF
:100A6000CC0FC82BC093580480915704813009F0F3
:100A700084C0109257040E94BF026B017C018091D8
:100A800058048093BB0080917F0490918004A091D2
:100A90008104B0918204892B8A2B8B2BA1F00E94B8
:100AA000BF0200917F041091800420918104309155
:100AB00082046C197D098E099F09061717072807FC
:100AC000390708F442C08091BC0083FDD8CF85EC83
:100AD0008093BC000E94BF026B017C0180917D0469
:100AE000823009F44CC080915B048F3F09F469C0E7
:100AF00080915B04803209F466C080915B0480338E
:100B000009F463C084E026C080917F049091800442
:100B1000A0918104B0918204892B8A2B8B2B09F43C
:100B200083CF0E94BF0200917F0410918004209126
:100B30008104309182046C197D098E099F09061782
:100B400017072807390708F06FCF80917E040E94AD
:100B50008A0385E010923404109233041092360414
:100B6000DF91CF911F910F91FF90EF90DF90CF9089
:100B700008959D9191938F5F6DCF85EEA9CF809160
:100B80007F0490918004A0918104B0918204892B0C
:100B90008A2B8B2B09F4A2CF0E94BF0200917F0405
:100BA0001091800420918104309182046C197D0998
:100BB0008E099F09061717072807390708F08ECFF7
:100BC000C4CF80E0C7CF82E0C5CF83E0C3CFCF934F
:100BD000DF93EB01A091C304B091C4049091C504CC
:100BE00021E020933604909335041092340410923F
:100BF0003304ED91FC9111970190F081E02D682F65
:100C0000CD010995892B11F4C0E01DC08091C3046A
:100C10009091C404DC01ED91FC910190F081E02DF4
:100C20006D2F0995892B81F38091C3049091C404A1
:100C3000DC01ED91FC910190F081E02D6C2F099584
:100C4000C1E0892B09F38091C3049091C4040E94F0
:100C50000005CC2319F0C1E08111C0E08C2FDF9199
:100C6000CF910895CF93C62FA091C304B091C4042F
:100C70009091C50421E0209336049093350410929E
:100C8000340410923304ED91FC9111970190F0819E
:100C9000E02D682FCD010995892B79F08091C3044F
:100CA0009091C404DC01ED91FC910190F081E02D64
:100CB0006C2F0995C1E0892B09F4C0E08091C30431
:100CC0009091C4040E940005CC2319F0C1E0811169
:100CD000C0E08C2FCF910895CF93DF93EC018D85E9
:100CE000882329F081508D87DF91CF9108959C81D1
:100CF0008E819817C8F788896827E881F981008470
:100D0000F185E02D42E0CE0109958C818F5F8C83C7
:100D1000EBCFDC01ED91FC910084F185E02D40E00A
:100D20000994FC012781269526952695621738F4AB
:100D300065832385620F6770606B0C948906089544
:100D40000F931F93CF93FC012681621798F4C62F4F
:100D50008C0164836085C60F6C2F6F700E948906BA
:100D60006C2F62956F706061C801CF911F910F91D8
:100D70000C948906CF911F910F910895CF92DF9225
:100D8000EF92FF920F931F93CF93DF93EC01F62E18
:100D9000C42ED22E1D868F8186958695869508173E
:100DA00010F00FEF080F1D2D6F2DCE01011788F0E9
:100DB0000E94A006612FCE010E949106EF2CCE1456
:100DC00030F06889CE010E946C06E394F8CF1F5F73
:100DD000EBCF0E94A0066D2DCE01DF91CF911F9128
:100DE0000F91FF90EF90DF90CF900C9491060F93AE
:100DF000CF93DF93CDECD4E01B861A8660E4CE015E
:100E00000E9489060F8106950695069501504E8130
:100E1000415020E060E0CE010E94BE06DF91CF91FC
:100E20000F9108952F923F924F925F926F927F920F
:100E30008F929F92AF92BF92CF92DF92EF92FF92EA
:100E40000F931F93CF93DF9300D000D000D01F9259
:100E5000CDB7DEB79F838E83DC011E968D919C916A
:100E6000009709F477C1FC01329654903196249191
:100E7000E22EF12CB7E0EB0EF11C43E0F594E79481
:100E80004A95E1F7E98231963491319644916D307B
:100E900001F560E08E819F810E94A00681E090E0D4
:100EA00027960FB6F894DEBF0FBECDBFDF91CF916E
:100EB0001F910F91FF90EF90DF90CF90BF90AF9078
:100EC0009F908F907F906F905F904F903F902F906A
:100ED00008956A3009F061C060E08E819F810E94B0
:100EE000A006EE81FF8101890E9DE02C1124658111
:100EF0006E0D8485882349F02781269526952695B1
:100F00008E2D821B860F18162CF08E819F810E94D9
:100F10009106C4CFAE81BF811B969C911B97890F10
:100F200087701B968C931B972E1915962C931597EB
:100F30001E96ED91FC91309771F13396E491F0E0BB
:100F4000379633E0F595E7953A95E1F70E9F002D3A
:100F50001124EFEFE20F0E0FEE81FF814681415029
:100F60006481CF010E94BE06AE81BF811C968C9128
:100F70001C97813009F092CF1B966C911B97660FDE
:100F8000660F660F6F731A966C931A976064CD01A3
:100F90000E94890683CF00E0DCCF631760F1A32FA6
:100FA000A40FBB27BB1F6A171B062CF5631B212C44
:100FB0008C010A5F1F4FEE81FF8151853189539F5C
:100FC000302D11243D83211014C0FC013491019671
:100FD000FC018491932F0297A0F45E9C90015F9C8A
:100FE000300D1124629FC001639F900D1124080FE2
:100FF000191F612C28C0603209F0ACC02224239450
:10100000D7CF277088E0682E621A211101C0612CA9
:10101000F80120E090E080E0621731F03491830F16
:10102000911D2F5F3196F8CFF801E60FF11D549016
:10103000E89EF001E99EF00DF89EF00D1124E40FFA
:10104000F11D0E0F1F1FAE81BF811496BC91BA8394
:10105000EE81FF81F581FB83AE81BF811D96BC913E
:10106000BC83852C912CAA24A394B12C312CE9812A
:101070003E1608F06DC0412CAE81BF8151968C9117
:101080005197481608F05DC0EC811D96EC93311025
:1010900002C0442079F0AE81BF811596DC9015978F
:1010A000D3946A81CD010E94A0066D2D8E819F810F
:1010B0000E949106D12CC12CC514B0F5712C2110C1
:1010C00004C0F601E00FF11F7490662061F0EA148D
:1010D000FB0449F4E72DF0E0062C02C0F595E795F6
:1010E0000A94E2F77E2EEE81FF818189823079F4C5
:1010F0004420B1F072948FE07822E72DF0E0EF57B2
:10110000FF4F7490672D8E819F810E946C06672D22
:101110008E819F810E946C063FEFC31AD30ACCCF09
:10112000F72DFF707F2EE9CFD12C8D81D81639F0A5
:1011300060E08E819F810E946C06D394F6CF439429
:101140009BCF3394AFEFAA1ABA0A080D191D8FCF9F
:101150006B81DBCE90E080E0A3CE0F931F93CF9303
:10116000DF93C4EBD0E00BE916E8CE010E949701B3
:10117000C8010197F1F72197C539D105B1F762E3AD
:1011800070E080E090E0DF91CF911F910F910C947F
:10119000E4020F931F93CF93DF93C6E9D0E00BE9EE
:1011A00016E8CE010E949701C8010197F1F7219638
:1011B000C53BD105B1F762E370E080E090E0DF91DC
:1011C000CF911F910F910C94E4028091C0048C3058
:1011D00008F052C061E08BE00E948E028091C00452
:1011E000282F30E0F901EE0FFF1FE20FF31FE15748
:1011F000FB4F9081907C9B6090831092C104109271
:10120000C2042CE0622F0E94DF14829FB0011124DF
:1012100030E020E0AB01420F531FFA01EE0FFF1F39
:10122000E40FF51FE157FB4F908196FD16C02F5F2D
:101230003F4F2C30310571F781110FC010928000A3
:1012400082E0809381001092850010928400B19A10
:1012500080916F00826080936F00E091C0048E2FB8
:1012600090E0FC01EE0FFF1FE80FF91FE157FB4F65
:101270008081806480830895089560E08EE00E94FC
:1012800060020E94AD080E94C90861E08EE00C94E3
:101290006002EF92FF920F931F93CF93DF93C82FBB
:1012A0008B0160E08EE00E9460026C2F80E10E9462
:1012B0006002D0E0C0E00150110983EAE82E82E02C
:1012C000F82EC017D10784F461E08FE00E9460021D
:1012D000C7010197F1F760E08FE00E946002C7014B
:1012E0000197F1F72196EDCFDF91CF911F910F91EB
:1012F000FF90EF90089560E87CE080E00E9449094B
:1013000060EA70E081E00E944909109203011092A6
:1013100002018EEF9FEF90930101809300010895E9
:10132000CF93DF93C82F60E080E00E9460026C2FB3
:1013300082E00E9460020E943C02892BA9F4CFE463
:10134000D1E00E943C0261E0892BA9F481E00E9477
:101350006002CE010197F1F760E081E00E94600237
:10136000CE010197F1F7EDCF62E370E080E090E00D
:101370000E94E402E0CF80E0DF91CF910C94600204
:10138000EF92FF921F93CF93DF93EB01C81BD90B12
:1013900011E0D7FF04C0EC01C61BD70B10E01C16F0
:1013A0001D0674F4F12CE12C117060E273E0812FC2
:1013B0000E9449098FEFE81AF80ACE15DF05A9F750
:1013C000DF91CF911F91FF90EF9008950F931F939E
:1013D000CF93DF93EC01062F142F8B89813120F4FA
:1013E000882339F0411105C083E894E00E9400058C
:1013F0001B8A8B89811112C08A8991E090933604EF
:1014000080933504109234041092330460E4111177
:1014100001C060E083E894E00E94D104602F83E87B
:1014200094E00E94D104123041F48B898F5F8B8B42
:10143000DF91CF911F910F91089583E894E00E946E
:1014400000051B8AF5CF089590E080E008951F9372
:10145000CF93DF93C3ECD4E0A881B9819A8121E0D6
:101460002093360490933504109234041092330480
:10147000ED91FC9111970190F081E02D682FCD0145
:101480000995888199810E94000562E08A810E9405
:10149000AB03109232048093310488819981DC017E
:1014A000ED91FC910284F385E02D0995182F888138
:1014B0009981DC01ED91FC910284F385E02D099581
:1014C00020E0312FA901482BCA01DF91CF911F9154
:1014D00008951F93CF93DF93182F8EE00E94270A61
:1014E000C1E0D0E002C0CC0FDD1F1A95E2F78C23DB
:1014F0009D23892B41F080E10E94270AC823D9232C
:1015000081E0CD2B09F480E0DF91CF911F91089508
:10151000CF93DF93C3ECD4E0A881B9819A8121E015
:1015200020933604909335041092340410923304BF
:10153000ED91FC9111970190F081E02D682FCD0184
:101540000995888199810E94000561E08A810E9445
:10155000AB03109232048093310488819981DC01BD
:10156000ED91FC910284F385E02D0995DF91CF91F7
:101570000895EF92FF920F931F93CF93DF93D82F8D
:10158000162F01E0613021F480E10E94270A00E07B
:101590008EE00E94270A61E070E09B0102C0220FEA
:1015A000331FDA95E2F7E901B9010023F9F0682B5E
:1015B000792B8EE00E94E7051230A1F58EE00E94A3
:1015C000270A809590958C239D23892BA1F080E19B
:1015D0000E94270ABE01682B792B80E1DF91CF9111
:1015E0001F910F91FF90EF900C94E7056095709517
:1015F00068237923DECF86E00E94270A8C0188E0E9
:101600000E94270A7C01BE01602B712B86E00E949C
:10161000E705882339F0BE01609570956E217F2122
:1016200088E0DCCFDF91CF911F910F91FF90EF9079
:101630000895FC0101900020E9F73197AF01481BA4
:10164000590BBC018DEC94E00C941803CF93DF93FD
:101650000E94190BEC018EE291E00E94190B8C0F95
:101660009D1FDF91CF910895CF93DF93EC010E94EE
:10167000F70680E391E00E94260B8EE192E00E9443
:10168000260B80E391E00E94260B80E391E00E940C
:10169000260B4C815D81688179818DEC94E00E94FC
:1016A00018038EE291E00E94190B80E391E00E9402
:1016B000260B80E391E00E94260B80913004882362
:1016C00091F181E391E00E94190B80912F0488230E
:1016D000F1F087E391E00E94190B80912E0488239A
:1016E000C9F08FE391E00E94190B80912D048823AB
:1016F000A1F083E491E00E94190B80912C048823CF
:1017000079F08BE693E0DF91CF910C94260B8BE37D
:1017100091E0E1CF8BE391E0E6CF8BE391E0EBCF7B
:1017200087E491E0F0CF89E491E0EDCF0E94D316F9
:10173000FC0180819181009711F00C948D15089522
:10174000EF92FF920F931F93CF93DF93EC017B01F6
:10175000198218821B821A821D821C82FB01019051
:101760000020E9F731978F01061B170BB8016F5F57
:101770007F4F90E080E00E9416160097B9F09983A1
:1017800088831B830A832C813D81232B11F4FC0168
:1017900010821D830C83B70188819981DF91CF91DD
:1017A0001F910F91FF90EF900C94E1168881998121
:1017B000009711F00E948D15198218821D821C82DB
:1017C0001B821A82DF91CF911F910F91FF90EF90B2
:1017D00008950F931F93CF93DF9300D000D000D0D4
:1017E000CDB7DEB7809100019091010197FD93C0C4
:1017F00069E571E0CE0101960E94A00BCE01019631
:101800000E94340BCE0101960E94980B0E94E508BD
:101810000E943D0980910001909101018130910564
:1018200009F473C00CF05CC069E671E0892B09F41F
:101830005FC00091000110910101C80101960330C1
:10184000110511F482E090E0B8010E94C0094091B6
:10185000B8045091B9046091BA047091BB0481E05E
:10186000023011050CF080E00E949009E091C00464
:101870008E2F90E0FC01EE0FFF1FE80FF91FE157DC
:10188000FB4F80818F7B80830091020110910301C7
:10189000B80180910001909101010E94C0090130BE
:1018A000110509F452C0E4F56DEB71E0012B09F468
:1018B0003FC000910201109103014091B404509186
:1018C000B5046091B6047091B704023011050CF0B4
:1018D00042C080E00E949009B8016F5F7F4F44C012
:1018E00082309105A9F068EA71E0039709F0A1CF71
:1018F000CE0101960E94A00BCE0101960E94340BEE
:10190000CE0101960E94980B94CF6EE771E0F0CF64
:1019100063E971E0EDCF1092010110920001A6CFB2
:1019200002301105A9F069EF71E00330110509F6E5
:10193000CE0101960E94A00BCE0101960E94340BAD
:10194000CE0101960E94980BB4CF61ED71E0F0CF0B
:1019500065EE71E0EDCF81E00E94900962E070E0F9
:101960000330110509F0B8CFC8010E94C0091093D7
:1019700001010093000126960FB6F894DEBF0FBE5A
:10198000CDBFDF91CF911F910F91089585ED809389
:10199000BC0080917F0490918004A0918104B0915B
:1019A00082040796A11DB11D23E0B695A7959795D2
:1019B00087952A95D1F72091BC0024FD03C0109291
:1019C0007D04089540917F045091800460918104CA
:1019D00070918204452B462B472B69F30097A10594
:1019E000B10541F02AE22A95F1F700C00197A1095B
:1019F000B109E1CF80917E040C948A031F920F926B
:101A00000FB60F9211242F933F938F939F93AF9311
:101A1000BF938091240490912504A0912604B09155
:101A200027043091230423E0230F2D3758F5019626
:101A3000A11DB11D209323048093240490932504B9
:101A4000A0932604B0932704809128049091290440
:101A5000A0912A04B0912B040196A11DB11D809381
:101A6000280490932904A0932A04B0932B04BF91D7
:101A7000AF919F918F913F912F910F900FBE0F903B
:101A80001F90189526E8230F0296A11DB11DD2CFF5
:101A90001F920F920FB60F9211242F933F934F93E3
:101AA0005F936F937F938F939F93AF93BF93CF93E6
:101AB000DF93EF93FF9380911A04C091B304D0E0B9
:101AC00087FF24C0109285001092840080911A0430
:101AD0008F5F80931A0480911A04082E000C990BD2
:101AE0008C179D0724F480911A048C30C4F18091E6
:101AF000840090918500049680349C4908F47AC053
:101B00008091840090918500049676C080911A049B
:101B1000082E000C990B8C179D07C4F6E0911A044F
:101B20008E2FEE0F990BFC01EE0FFF1FE80FF91F30
:101B3000E157FB4F808186FFC9CFE0911A048E2FB9
:101B4000EE0F990BFC01EE0FFF1FE80FF91FE15795
:101B5000FB4F808160E08F730E946002B7CF2091BD
:101B6000840030918500E0911A048E2FEE0F990BBE
:101B7000FC01EE0FFF1FE80FF91FE157FB4F8181BA
:101B80009281820F931F9093890080938800E09147
:101B90001A048E2FEE0F990BFC01EE0FFF1FE80FBA
:101BA000F91FE157FB4F808186FF11C0E0911A04B5
:101BB0008E2FEE0F990BFC01EE0FFF1FE80FF91FA0
:101BC000E157FB4F808161E08F730E946002FF91BB
:101BD000EF91DF91CF91BF91AF919F918F917F91C5
:101BE0006F915F914F913F912F910F900FBE0F908A
:101BF0001F90189580E49CE9909389008093880059
:101C00008FEF80931A04E3CF1F920F920FB60F92BB
:101C100011242F933F934F935F936F937F938F93F1
:101C20009F93AF93BF93EF93FF938091B900887F09
:101C3000803609F44AC0F0F5883209F4A7C018F5D7
:101C4000803109F49BC0B8F4882309F4F9C08830C6
:101C500009F494C0FF91EF91BF91AF919F918F9143
:101C60007F916F915F914F913F912F910F900FBE98
:101C70000F901F901895883109F488C0803251F771
:101C800080935B0414C0803409F49DC040F4803319
:101C9000B9F38833F9F680935B0485ECB0C08035E6
:101CA00009F485C0883509F496C0883499F60E94F5
:101CB000C60CD0CF883909F48CC038F5883729F0A4
:101CC00050F4883611F0803729F683E080937D0444
:101CD0001092190457C0883809F47BC0803919F074
:101CE000803809F0B7CF80911904803208F071C0B4
:101CF000E091190481E08E0F809319048091BB005C
:101D0000F0E0E750FC4F80833DC0803B39F0E0F4C9
:101D1000803A09F479C0883A09F09CCF84E0809336
:101D20007D041092F8031092F703E0911D04F091E6
:101D30001E0409958091F70381110FC081E0809303
:101D4000F7031092D70309C0803C09F4A6CF883C62
:101D500009F4A3CF883B09F07DCFE091F80381E03F
:101D60008E0F8093F803F0E0E952FC4F808180935E
:101D7000BB009091F8038091F70329C0809158042B
:101D80008093BB0085EC8093BC0064CF90915A0493
:101D900080915904981758F5E0915A0481E08E0F0C
:101DA00080935A04F0E0E95CFB4F8081E9CFE09139
:101DB0005A0481E08E0F80935A048091BB00F0E0BA
:101DC000E95CFB4F808390915A04809159049817E5
:101DD000C8F285E8D8CFE0915A0481E08E0F809355
:101DE0005A048091BB00F0E0E95CFB4F8083809156
:101DF0005C0481115CCF81E08093570484EA809376
:101E0000BC0010927D0426CF85EC8093BC0010921C
:101E10007D0480911904803230F4E0911904F0E0DF
:101E2000E750FC4F10826091190470E0E0911B04B0
:101E3000F0911C0489EF93E00995109219040ACFE0
:101E400010925B0434CF109286041092850488EEC1
:101E500093E0A0E0B0E08093870490938804A0937F
:101E60008904B0938A0482E191E090938404809382
:101E700083041092D0041092CF041092D9041092CF
:101E8000DA041092DC041092DB041092DD0481E08D
:101E90008093DE0484E291E09093CE048093CD049D
:101EA0001092C9041092CA041092CB041092CC0470
:101EB0008091B3048C30B8F591E0980F9093B304FF
:101EC0008093C00490E0FC01EE0FFF1FE80FF91FA4
:101ED000E157FB4F88EB9BE09283818386E990E09A
:101EE000A0E0B0E08093BC049093BD04A093BE0436
:101EF000B093BF0480E09DE7A0E0B0E08093B80419
:101F00009093B904A093BA04B093BB0480E899E815
:101F1000A0E0B0E08093B4049093B504A093B6041D
:101F2000B093B70408958FEF8093C004D7CFCF93B9
:101F3000DF9300D000D000D0CDB7DEB7789484B561
:101F4000826084BD84B5816084BD85B5826085BDB5
:101F500085B5816085BD80916E00816080936E0043
:101F60001092810080918100826080938100809135
:101F700081008160809381008091800081608093E6
:101F800080008091B10084608093B1008091B000A6
:101F900081608093B00080917A00846080937A00A1
:101FA00080917A00826080937A0080917A008160CB
:101FB00080937A0080917A00806880937A001092F2
:101FC000C100109232041092310410923404109225
:101FD00033040E946C0386E193E090931E04809387
:101FE0001D0487E193E090931C0480931B048CE014
:101FF0008093B80083E894E09093C4048093C30472
:102000008EE38093C5048FEF8093C80462E18DE76F
:102010000E94320664E38DE70E94320683E10E944B
:10202000270A81159F4F81F560E48EE10E943206F8
:1020300080E894E8AEE1B0E08093C9049093CA04CC
:10204000A093CB04B093CC048FE10E94880A8F78D0
:10205000682F60618FE10E94320662E080E00E949A
:10206000B90A62E081E00E94B90A62E082E00E945F
:10207000B90A62E083E00E94B90A61E084E00E944C
:10208000B90A81E0809330041092E0048CE38093DD
:10209000DF041092D1041092D204E7E7F2E08591B8
:1020A0009491E82EE9E7F2E0F490EAE7F2E0E491B7
:1020B000E093D304EBE7F2E0E491E093D404ECE79F
:1020C000F2E0E491E093D5048C01802F8E198F15F6
:1020D00048F4F80164918DEC94E00E9489060F5F4A
:1020E0001F4FF3CF0E94F70662E370E080E090E0BC
:1020F0000E94E402E1E9F0E0F093DC04E093DB0409
:102100008491E2E9F0E0E491F82F319709F0CCC036
:102110001092D6040E94F70680E391E00E94260BFD
:102120008DE092E00E94260B80E391E00E94260B56
:102130008DE192E00E94260B80E391E00E94260B45
:1021400081E392E00E94260B68EB7BE080E090E068
:102150000E94E4026EE372E0CE0101960E94A00BA1
:10216000CE0101960E94340BCE0101960E94980B7D
:1021700061E080E00E948E0261E081E00E948E02B8
:1021800061E082E00E948E0261E08EE00E948E0299
:1021900061E08FE00E948E0261E080E10E948E0289
:1021A00062E081E10E948E0261E082E10E948E0283
:1021B00061E083E10E948E0261E08EE00E94600295
:1021C0000E94E5080E943D09E091C0048E2F90E036
:1021D000FC01EE0FFF1FE80FF91FE157FB4F808155
:1021E0008F7B808342E0442E512C612C712C50E077
:1021F000852E50E0952E02E010E063E0A62EB12C73
:1022000080911F0490912004A0912104B091220498
:102210000196A11DB11D80931F0490932004A093EB
:102220002104B09322040E943C02892B09F0E1C0F2
:1022300010921F0410922004109221041092220484
:10224000C12CD12C76010E943C02892B09F07CC064
:102250008091BC049091BD04A091BE04B091BF04D4
:10226000C816D906EA06FB0608F067C0FFEFCF1ACA
:10227000DF0AEF0AFF0AD701C6010297A109B109D7
:1022800089309105A105B10508F043C0FC01E55B6B
:10229000FE4E0C94EB1458117111741177117A11D0
:1022A0007D1180118311861181E08093D60432CF95
:1022B0006CE472E0CE0101960E94A00BCE01019663
:1022C0000E94340BCE0101960E94980B60E270E0F0
:1022D00080E00E94490960E270E081E00E944909C3
:1022E0002CC06DE572E0E6CF6EE672E0E3CF6FE7FB
:1022F00072E0E0CF60E972E0DDCF61EA72E0DACF50
:1023000061EB72E0D7CF6EEB72E0D4CF6BEC72E092
:10231000D1CF69ED72E0CE0101960E94A00BCE01F3
:1023200001960E94340BCE0101960E94980B21E089
:10233000C216D104E104F10449F660E971E080E0DD
:1023400090E00E94E4027FCF42E0C41AD108E10885
:10235000F10889E0C816D104E104F10408F0DCC1F9
:10236000F601EB54FE4E0C94EB14BE11D5112E1257
:1023700045125C129A1203131413481369EE72E0AB
:10238000CE0101960E94A00BCE0101960E94340B53
:10239000CE0101960E94980B109203011092020147
:1023A0000E94E90B6AEF72E018C06AE073E0CE01A8
:1023B00001960E94A00BCE0101960E94340BCE0123
:1023C00001960E94980B81E090E090930301809326
:1023D00002010E94E90B6BE173E0CE0101960E94BD
:1023E000A00BCE0101960E94340BCE0101960E94F3
:1023F000980B80913004882321F180E00E94690AC3
:1024000091E0811101C090E090932F0481E00E943F
:10241000690A91E0811101C090E090932E0482E05E
:102420000E94690A91E0811101C090E090932D040F
:1024300083E00E94690A91E0811101C090E09093CD
:102440002C0462E370E080E090E00E94E4028114DA
:10245000910409F4D5CE0E940000D2CE6BE273E065
:10246000CE0101960E94A00BCE0101960E94340B72
:10247000CE0101960E94980B109303010093020174
:102480000E94E90B6CE373E0A8CF6CE473E0CE012B
:1024900001960E94A00BCE0101960E94340BCE0142
:1024A00001960E94980BB0920301A09202010E9433
:1024B000E90B6DE573E091CF6DE673E0CE01019617
:1024C0000E94A00BCE0101960E94340BCE01019612
:1024D0000E94980B0E947B096DEB71E0CE01019682
:1024E0000E94A00BCE0101960E94340BCE010196F2
:1024F0000E94980B70E060E090E080E00E94C009CC
:102500004091B4045091B5046091B6047091B70441
:1025100080E00E94900961E070E090E080E00E941D
:10252000C009109203011092020110920101109251
:10253000000138CF69E571E0CE0101960E94A00B41
:10254000CE0101960E94340BCE0101960E94980B99
:102550000E94E5080E943D098091000190910101CF
:102560008130910509F449C0A4F569E671E0892B31
:10257000B9F1E0900001F0900101C7010196E3E09C
:10258000EE16F10411F482E090E0B7010E94C00958
:102590004091B8045091B9046091BA047091BB04A1
:1025A00081E0F2E0EF16F1040CF080E00E94900967
:1025B000E091C0048E2F90E0FC01EE0FFF1FE80FAA
:1025C000F91FE157FB4F80818F7B80836DE773E0BC
:1025D00004CF82309105A1F068EA71E0039749F6D3
:1025E000CE0101960E94A00BCE0101960E94340BF1
:1025F000CE0101960E94980BBCCF6EE771E0F0CF40
:1026000063E971E0EDCF6EE673E0CE0101960E94C2
:10261000A00BCE0101960E94340BCE0101960E94C0
:10262000980B0E947B09D2CF69E571E0CE0101963B
:102630000E94A00BCE0101960E94340BCE010196A0
:102640000E94980B0E94E5080E943D096AE873E029
:10265000CE0101960E94A00BCE0101960E94340B80
:10266000CE0101960E94980B809102019091030186
:1026700001968430910539F0909303018093020113
:102680000E94E90BA3CF1092030110920201F8CF30
:1026900069E571E0CE0101960E94A00BCE01019682
:1026A0000E94340BCE0101960E94980B0E94E5080F
:1026B0000E943D0969E973E0CE0101960E94A00BDA
:1026C000CE0101960E94340BCE0101960E94980B18
:1026D0000E94ED13A30192010E9445142091020172
:1026E00030910301C12CD12C76016C157D058E052E
:1026F0009F056CF02F5F3F4F2430310511F430E01F
:1027000020E04FEFC41AD40AE40AF40AEECF309363
:10271000030120930201B4CF69EA73E0CE01019670
:102720000E94A00BCE0101960E94340BCE010196AF
:102730000E94980B68EC70E080E090E00E94E40258
:1027400045CF8F929F92AF92BF92CF92DF92EF923E
:10275000FF92CF93DF93EC01688179818A819B811D
:10276000611571058105910521F464E279ED8BE530
:1027700097E02DE133EF41E050E00E94451449011C
:102780005A019B01AC01A7EAB1E40E9464146B01F9
:102790007C01ACEEB4EFA50194010E947214C60E48
:1027A000D71EE81EF91EF7FE06C081E0C81AD10840
:1027B000E10880E8F80AC882D982EA82FB82C70170
:1027C000B6019F77DF91CF91FF90EF90DF90CF9090
:1027D000BF90AF909F908F9008958F929F92AF92ED
:1027E000BF92CF92DF92EF92FF92609104017091BD
:1027F0000501809106019091070161157105810520
:10280000910521F464E279ED8BE597E02DE133EF5A
:1028100041E050E00E94451449015A019B01AC017E
:10282000A7EAB1E40E9464146B017C01ACEEB4EF42
:10283000A50194010E947214C60ED71EE81EF91E4F
:10284000F7FE06C081E0C81AD108E10880E8F80A5E
:10285000C0920401D0920501E0920601F0920701B6
:10286000C701B6019F77FF90EF90DF90CF90BF90A8
:10287000AF909F908F90089560930401709305012D
:1028800080930601909307010895052E97FB1EF48F
:1028900000940E945C1457FD07D00E94AE1407FC00
:1028A00003D04EF40C945C145095409530952195CE
:1028B0003F4F4F4F5F4F089590958095709561956C
:1028C0007F4F8F4F9F4F08950E94D014A59F900D6A
:1028D000B49F900DA49F800D911D11240895B7FF02
:1028E0000C9464140E946414821B930B08952F921D
:1028F0003F924F925F926F927F928F929F92AF9290
:10290000BF92CF92DF92EF92FF920F931F93CF93DC
:10291000DF93CDB7DEB7CA1BDB0B0FB6F894DEBF73
:102920000FBECDBF09942A88398848885F846E8499
:102930007D848C849B84AA84B984C884DF80EE80E3
:10294000FD800C811B81AA81B981CE0FD11D0FB6EC
:10295000F894DEBF0FBECDBFED010895A1E21A2E9F
:10296000AA1BBB1BFD010DC0AA1FBB1FEE1FFF1F33
:10297000A217B307E407F50720F0A21BB30BE40B83
:10298000F50B661F771F881F991F1A9469F76095CA
:102990007095809590959B01AC01BD01CF01089584
:1029A000A29FB001B39FC001A39F700D811D112490
:1029B000911DB29F700D811D1124911D0895991BC9
:1029C00079E004C0991F961708F0961B881F7A9526
:1029D000C9F780950895EE0FFF1F0590F491E02D43
:1029E00009940F931F93CF93DF938230910510F4D6
:1029F00082E090E0E091E304F091E40430E020E034
:102A0000B0E0A0E0309799F42115310509F44AC0EF
:102A1000281B390B24303105D8F58A819B8161153B
:102A2000710589F1FB0193838283FE0111C040810E
:102A300051810281138148175907E0F0481759075F
:102A400099F4109761F012960C93129713961C93B9
:102A50003296CF01DF91CF911F910F91089500938E
:102A6000E3041093E404F4CF2115310551F042172B
:102A7000530738F0A901DB019A01BD01DF01F8011C
:102A8000C1CFEF01F9CF9093E4048093E304CDCF5D
:102A9000FE01E20FF31F8193919322503109398394
:102AA0002883D7CF2091E1043091E204232B41F415
:102AB00020910A0130910B013093E2042093E1044C
:102AC00020910801309109012115310541F42DB7FC
:102AD0003EB740910C0150910D01241B350BE09144
:102AE000E104F091E204E217F307A0F42E1B3F0B80
:102AF0002817390778F0AC014E5F5F4F2417350770
:102B000048F04E0F5F1F5093E2044093E10481931D
:102B100091939FCFF0E0E0E09CCFCF93DF930097BD
:102B2000E9F0FC01329713821282A091E304B09184
:102B3000E404ED0130E020E01097A1F42081318120
:102B4000820F931F2091E1043091E2042817390786
:102B500009F061C0F093E204E093E104DF91CF91CA
:102B60000895EA01CE17DF07E8F54A815B819E01EF
:102B700041155105B1F7E901FB83EA834991599168
:102B8000C40FD51FEC17FD0761F480819181029677
:102B9000840F951FE90199838883828193819B83A8
:102BA0008A83F0E0E0E012968D919C911397009754
:102BB000B9F52D913C911197CD010296820F931F8B
:102BC0002091E1043091E2042817390739F6309753
:102BD00051F51092E4041092E304B093E204A09340
:102BE000E104BCCFD383C28340815181840F951F00
:102BF000C817D90761F44E5F5F4F88819981480FEC
:102C0000591F518340838A819B819383828321153D
:102C1000310509F0B0CFF093E404E093E3049ECFD4
:102C2000FD01DC01C0CF13821282D7CFB0E0A0E05B
:102C3000ECE1F6E10C9479148C01009751F4CB018E
:102C40000E94F1148C01C801CDB7DEB7E0E10C940D
:102C50009514FC01E60FF71F9C0122503109E21781
:102C6000F30708F49DC0D901CD91DC911197C617E7
:102C7000D70798F0C530D10530F3CE0104978617F9
:102C8000970708F3C61BD70B2297C193D1936D9377
:102C90007C93CF010E948D15D6CF5B01AC1ABD0A83
:102CA0004C018C0E9D1EA091E304B091E404512CC4
:102CB000412CF12CE12C109731F58091E104909199
:102CC000E2048815990509F05CC04616570608F01D
:102CD00058C08091080190910901009741F48DB787
:102CE0009EB740910C0150910D01841B950BE81784
:102CF000F90708F055C0F093E204E093E104F9010C
:102D000071836083A0CF8D919C91119712966C90E6
:102D1000129713967C901397A815B90559F56C0175
:102D200042E0C40ED11CCA14DB0420F1AC014A19E4
:102D30005B09DA011296159780F0628273825183E3
:102D40004083D9016D937C93E114F10471F0D701B4
:102D50001396FC93EE93129776CF22968C0F9D1FBD
:102D6000F90191838083F301EFCFF093E404E093C2
:102D7000E30469CF4816590608F42C017D01D301FC
:102D80009ACFCB010E94F1147C01009749F0AE016B
:102D9000B8010E94D816C8010E948D15870153CF33
:102DA00010E000E050CF81E090E0F8940C94E81639
:102DB000FB01DC0102C001900D9241505040D8F758
:102DC0000895FB01DC0101900D920020E1F70895C8
:042DD000F894FFCFA5
:102DD400FFFFFFFF010000000000E5048000000089
:102DE4000000D104A404240A7A049D048A047B0408
:102DF4000000000012071803240A230AE6090D0A3A
:102E040000202020202000302020002B2020003112
:102E1400202000322020002B0020202020202D20E4
:102E2400202D20202D20202D00202020202043751F
:102E34007474696E672E2E2E002020507265737391
:102E440020746F20556E6C6F616420543000202014
:102E5400507265737320746F20556E6C6F616420BB
:102E64005431002020507265737320746F20556EA6
:102E74006C6F61642054320020205072657373209B
:102E8400746F20556E6C6F616420543300202020D1
:102E9400507265737320746F204C6F6164205430DA
:102EA40000202020507265737320746F204C6F6172
:102EB4006420543100202020507265737320746F95
:102EC400204C6F61642054320020202050726573BE
:102ED4007320746F204C6F616420543300202020D1
:102EE4002020202057656C636F6D65210020202011
:102EF4002033444368616D656C656F6E204D6B349F
:102F04000020202020202020202050726F0020202C
:102F14002020202020526561647921002020202077
:102F240053776974636820746F2054300020202024
:102F34002053776974636820746F20543100202013
:102F4400202053776974636820746F205432002002
:102F540020202053776974636820746F20543300F1
:102F640020202020486F6D652F4C6F616420543001
:102F74000020202020556E6C6F61642F486F6D65B2
:102F8400002020202020202020486F6D6500202074
:102F94002020202020204E6578740020202020202E
:102FA400202052616E646F6D0020202020204E6F1F
:102FB40020436F6D6D616E6400202020202054300A
:102FC4002053656C656374656400202020202020F4
:102FD40049646C65202D205430002020202020548A
:102FE400312053656C6563746564002020202020C3
:102FF4002049646C65202D2054310020202020209D
:1030040054322053656C656374656400202020206D
:10301400202049646C65202D20543200202020207B
:103024002054332053656C6563746564002020204C
:1030340020202049646C65202D205433002020205A
:10304400202020486F6D696E672E2E2E00202020D0
:10305400202020202049646C650020202020204E60
:1030640065787420546F6F6C002020202052616EAC
:10307400646F6D20546F6F6C00202020202020206E
:06308400436C656172005F
:00000001FF
